{
    "contractName": "NFT",
    "abi": [
        {
            "inputs": [
                {
                    "internalType": "address",
                    "name": "marketplaceAddress",
                    "type": "address"
                }
            ],
            "stateMutability": "nonpayable",
            "type": "constructor"
        },
        {
            "anonymous": false,
            "inputs": [
                {
                    "indexed": true,
                    "internalType": "address",
                    "name": "owner",
                    "type": "address"
                },
                {
                    "indexed": true,
                    "internalType": "address",
                    "name": "approved",
                    "type": "address"
                },
                {
                    "indexed": true,
                    "internalType": "uint256",
                    "name": "tokenId",
                    "type": "uint256"
                }
            ],
            "name": "Approval",
            "type": "event"
        },
        {
            "anonymous": false,
            "inputs": [
                {
                    "indexed": true,
                    "internalType": "address",
                    "name": "owner",
                    "type": "address"
                },
                {
                    "indexed": true,
                    "internalType": "address",
                    "name": "operator",
                    "type": "address"
                },
                {
                    "indexed": false,
                    "internalType": "bool",
                    "name": "approved",
                    "type": "bool"
                }
            ],
            "name": "ApprovalForAll",
            "type": "event"
        },
        {
            "anonymous": false,
            "inputs": [
                {
                    "indexed": true,
                    "internalType": "address",
                    "name": "from",
                    "type": "address"
                },
                {
                    "indexed": true,
                    "internalType": "address",
                    "name": "to",
                    "type": "address"
                },
                {
                    "indexed": true,
                    "internalType": "uint256",
                    "name": "tokenId",
                    "type": "uint256"
                }
            ],
            "name": "Transfer",
            "type": "event"
        },
        {
            "inputs": [
                {
                    "internalType": "address",
                    "name": "to",
                    "type": "address"
                },
                {
                    "internalType": "uint256",
                    "name": "tokenId",
                    "type": "uint256"
                }
            ],
            "name": "approve",
            "outputs": [],
            "stateMutability": "nonpayable",
            "type": "function"
        },
        {
            "inputs": [
                {
                    "internalType": "address",
                    "name": "owner",
                    "type": "address"
                }
            ],
            "name": "balanceOf",
            "outputs": [
                {
                    "internalType": "uint256",
                    "name": "",
                    "type": "uint256"
                }
            ],
            "stateMutability": "view",
            "type": "function"
        },
        {
            "inputs": [
                {
                    "internalType": "string",
                    "name": "tokenURI",
                    "type": "string"
                },
                {
                    "internalType": "string",
                    "name": "name",
                    "type": "string"
                },
                {
                    "internalType": "string",
                    "name": "symbol",
                    "type": "string"
                }
            ],
            "name": "createCollection",
            "outputs": [
                {
                    "internalType": "uint256",
                    "name": "",
                    "type": "uint256"
                }
            ],
            "stateMutability": "nonpayable",
            "type": "function"
        },
        {
            "inputs": [
                {
                    "internalType": "string",
                    "name": "tokenURI",
                    "type": "string"
                },
                {
                    "internalType": "uint256",
                    "name": "collectionId",
                    "type": "uint256"
                }
            ],
            "name": "createToken",
            "outputs": [
                {
                    "internalType": "uint256",
                    "name": "",
                    "type": "uint256"
                }
            ],
            "stateMutability": "nonpayable",
            "type": "function"
        },
        {
            "inputs": [
                {
                    "internalType": "uint256",
                    "name": "collectionId",
                    "type": "uint256"
                }
            ],
            "name": "fetchCollectionID",
            "outputs": [
                {
                    "components": [
                        {
                            "internalType": "uint256",
                            "name": "collectionId",
                            "type": "uint256"
                        },
                        {
                            "internalType": "string",
                            "name": "name",
                            "type": "string"
                        },
                        {
                            "internalType": "string",
                            "name": "tokenURI",
                            "type": "string"
                        },
                        {
                            "internalType": "string",
                            "name": "symbol",
                            "type": "string"
                        }
                    ],
                    "internalType": "struct NFT.Collection",
                    "name": "",
                    "type": "tuple"
                }
            ],
            "stateMutability": "view",
            "type": "function"
        },
        {
            "inputs": [],
            "name": "fetchCollections",
            "outputs": [
                {
                    "components": [
                        {
                            "internalType": "uint256",
                            "name": "collectionId",
                            "type": "uint256"
                        },
                        {
                            "internalType": "string",
                            "name": "name",
                            "type": "string"
                        },
                        {
                            "internalType": "string",
                            "name": "tokenURI",
                            "type": "string"
                        },
                        {
                            "internalType": "string",
                            "name": "symbol",
                            "type": "string"
                        }
                    ],
                    "internalType": "struct NFT.Collection[]",
                    "name": "",
                    "type": "tuple[]"
                }
            ],
            "stateMutability": "view",
            "type": "function"
        },
        {
            "inputs": [
                {
                    "internalType": "uint256",
                    "name": "tokenId",
                    "type": "uint256"
                }
            ],
            "name": "getApproved",
            "outputs": [
                {
                    "internalType": "address",
                    "name": "",
                    "type": "address"
                }
            ],
            "stateMutability": "view",
            "type": "function"
        },
        {
            "inputs": [
                {
                    "internalType": "uint256",
                    "name": "tokenId",
                    "type": "uint256"
                }
            ],
            "name": "getOwnerOfToken",
            "outputs": [
                {
                    "internalType": "address",
                    "name": "",
                    "type": "address"
                }
            ],
            "stateMutability": "view",
            "type": "function"
        },
        {
            "inputs": [
                {
                    "internalType": "uint256",
                    "name": "collectionId",
                    "type": "uint256"
                }
            ],
            "name": "getTokensInCollection",
            "outputs": [
                {
                    "components": [
                        {
                            "internalType": "uint256",
                            "name": "tokenId",
                            "type": "uint256"
                        },
                        {
                            "internalType": "string",
                            "name": "tokenURI",
                            "type": "string"
                        },
                        {
                            "internalType": "address",
                            "name": "owner",
                            "type": "address"
                        },
                        {
                            "internalType": "string",
                            "name": "collectionName",
                            "type": "string"
                        },
                        {
                            "internalType": "string",
                            "name": "collectionSymbol",
                            "type": "string"
                        }
                    ],
                    "internalType": "struct NFT.CollectionData[]",
                    "name": "",
                    "type": "tuple[]"
                }
            ],
            "stateMutability": "view",
            "type": "function"
        },
        {
            "inputs": [
                {
                    "internalType": "address",
                    "name": "owner",
                    "type": "address"
                }
            ],
            "name": "getTokensOfOwner",
            "outputs": [
                {
                    "components": [
                        {
                            "internalType": "uint256",
                            "name": "tokenId",
                            "type": "uint256"
                        },
                        {
                            "internalType": "string",
                            "name": "tokenURI",
                            "type": "string"
                        },
                        {
                            "internalType": "address",
                            "name": "owner",
                            "type": "address"
                        },
                        {
                            "internalType": "string",
                            "name": "collectionName",
                            "type": "string"
                        },
                        {
                            "internalType": "string",
                            "name": "collectionSymbol",
                            "type": "string"
                        }
                    ],
                    "internalType": "struct NFT.CollectionData[]",
                    "name": "",
                    "type": "tuple[]"
                }
            ],
            "stateMutability": "view",
            "type": "function"
        },
        {
            "inputs": [
                {
                    "internalType": "address",
                    "name": "owner",
                    "type": "address"
                },
                {
                    "internalType": "address",
                    "name": "operator",
                    "type": "address"
                }
            ],
            "name": "isApprovedForAll",
            "outputs": [
                {
                    "internalType": "bool",
                    "name": "",
                    "type": "bool"
                }
            ],
            "stateMutability": "view",
            "type": "function"
        },
        {
            "inputs": [],
            "name": "name",
            "outputs": [
                {
                    "internalType": "string",
                    "name": "",
                    "type": "string"
                }
            ],
            "stateMutability": "view",
            "type": "function"
        },
        {
            "inputs": [
                {
                    "internalType": "uint256",
                    "name": "tokenId",
                    "type": "uint256"
                }
            ],
            "name": "ownerOf",
            "outputs": [
                {
                    "internalType": "address",
                    "name": "",
                    "type": "address"
                }
            ],
            "stateMutability": "view",
            "type": "function"
        },
        {
            "inputs": [
                {
                    "internalType": "address",
                    "name": "from",
                    "type": "address"
                },
                {
                    "internalType": "address",
                    "name": "to",
                    "type": "address"
                },
                {
                    "internalType": "uint256",
                    "name": "tokenId",
                    "type": "uint256"
                }
            ],
            "name": "safeTransferFrom",
            "outputs": [],
            "stateMutability": "nonpayable",
            "type": "function"
        },
        {
            "inputs": [
                {
                    "internalType": "address",
                    "name": "from",
                    "type": "address"
                },
                {
                    "internalType": "address",
                    "name": "to",
                    "type": "address"
                },
                {
                    "internalType": "uint256",
                    "name": "tokenId",
                    "type": "uint256"
                },
                {
                    "internalType": "bytes",
                    "name": "_data",
                    "type": "bytes"
                }
            ],
            "name": "safeTransferFrom",
            "outputs": [],
            "stateMutability": "nonpayable",
            "type": "function"
        },
        {
            "inputs": [
                {
                    "internalType": "address",
                    "name": "operator",
                    "type": "address"
                },
                {
                    "internalType": "bool",
                    "name": "approved",
                    "type": "bool"
                }
            ],
            "name": "setApprovalForAll",
            "outputs": [],
            "stateMutability": "nonpayable",
            "type": "function"
        },
        {
            "inputs": [
                {
                    "internalType": "bytes4",
                    "name": "interfaceId",
                    "type": "bytes4"
                }
            ],
            "name": "supportsInterface",
            "outputs": [
                {
                    "internalType": "bool",
                    "name": "",
                    "type": "bool"
                }
            ],
            "stateMutability": "view",
            "type": "function"
        },
        {
            "inputs": [],
            "name": "symbol",
            "outputs": [
                {
                    "internalType": "string",
                    "name": "",
                    "type": "string"
                }
            ],
            "stateMutability": "view",
            "type": "function"
        },
        {
            "inputs": [
                {
                    "internalType": "uint256",
                    "name": "tokenId",
                    "type": "uint256"
                }
            ],
            "name": "tokenURI",
            "outputs": [
                {
                    "internalType": "string",
                    "name": "",
                    "type": "string"
                }
            ],
            "stateMutability": "view",
            "type": "function"
        },
        {
            "inputs": [
                {
                    "internalType": "address",
                    "name": "from",
                    "type": "address"
                },
                {
                    "internalType": "address",
                    "name": "to",
                    "type": "address"
                },
                {
                    "internalType": "uint256",
                    "name": "tokenId",
                    "type": "uint256"
                }
            ],
            "name": "transferFrom",
            "outputs": [],
            "stateMutability": "nonpayable",
            "type": "function"
        }
    ],
    "bytecode": "60806040523480156200001157600080fd5b5060405162002b1638038062002b168339810160408190526200003491620000c4565b6040518060400160405280601081526020016f4d657461766572736520546f6b656e7360801b815250604051806040016040528060048152602001631351551560e21b81525081600090816200008b91906200019b565b5060016200009a82826200019b565b5050600980546001600160a01b0319166001600160a01b0393909316929092179091555062000267565b600060208284031215620000d757600080fd5b81516001600160a01b0381168114620000ef57600080fd5b9392505050565b634e487b7160e01b600052604160045260246000fd5b600181811c908216806200012157607f821691505b6020821081036200014257634e487b7160e01b600052602260045260246000fd5b50919050565b601f8211156200019657600081815260208120601f850160051c81016020861015620001715750805b601f850160051c820191505b8181101562000192578281556001016200017d565b5050505b505050565b81516001600160401b03811115620001b757620001b7620000f6565b620001cf81620001c884546200010c565b8462000148565b602080601f831160018114620002075760008415620001ee5750858301515b600019600386901b1c1916600185901b17855562000192565b600085815260208120601f198616915b82811015620002385788860151825594840194600190910190840162000217565b5085821015620002575787850151600019600388901b60f8161c191681555b5050505050600190811b01905550565b61289f80620002776000396000f3fe608060405234801561001057600080fd5b506004361061012c5760003560e01c806372b3b620116100ad578063bcd8705a11610071578063bcd8705a1461028f578063c87b56dd146102af578063d2ead4cb146102c2578063e985e9c5146102d7578063ece86c211461031357600080fd5b806372b3b6201461023b5780637f1dd80b1461024e57806395d89b4114610261578063a22cb46514610269578063b88d4fde1461027c57600080fd5b806323b872dd116100f457806323b872dd146101ce57806342842e0e146101e15780635de6dc55146101f45780636352211e1461020757806370a082311461021a57600080fd5b806301ffc9a714610131578063047173581461015957806306fdde0314610179578063081812fc1461018e578063095ea7b3146101b9575b600080fd5b61014461013f366004612026565b610326565b60405190151581526020015b60405180910390f35b61016c610167366004612043565b610378565b60405161015091906120ac565b610181610608565b604051610150919061216e565b6101a161019c366004612043565b61069a565b6040516001600160a01b039091168152602001610150565b6101cc6101c736600461219d565b610727565b005b6101cc6101dc3660046121c7565b61083c565b6101cc6101ef3660046121c7565b61086d565b61016c610202366004612203565b610888565b6101a1610215366004612043565b610b90565b61022d610228366004612203565b610c07565b604051908152602001610150565b61022d6102493660046122ca565b610c8e565b6101a161025c366004612043565b610f98565b610181610fa3565b6101cc61027736600461230f565b610fb2565b6101cc61028a36600461234b565b610fc1565b6102a261029d366004612043565b610ff9565b6040516101509190612422565b6101816102bd366004612043565b611274565b6102ca6113ea565b6040516101509190612435565b6101446102e5366004612497565b6001600160a01b03918216600090815260056020908152604080832093909416825291909152205460ff1690565b61022d6103213660046124ca565b611699565b60006001600160e01b031982166380ac58cd60e01b148061035757506001600160e01b03198216635b5e139f60e01b145b8061037257506301ffc9a760e01b6001600160e01b03198316145b92915050565b6060600061038560075490565b9050600060015b8281116103c9576000818152600b60205260409020548590036103b757816103b381612568565b9250505b806103c181612568565b91505061038c565b5060008167ffffffffffffffff8111156103e5576103e561221e565b60405190808252806020026020018201604052801561041e57816020015b61040b611fd5565b8152602001906001900390816104035790505b509050600060015b8481116105fd576000818152600b60205260409020548790036105eb576040518060a0016040528082815260200161045d83611274565b815260200161046b83610b90565b6001600160a01b03168152602001600c60008a8152602001908152602001600020600101805461049a90612581565b80601f01602080910402602001604051908101604052809291908181526020018280546104c690612581565b80156105135780601f106104e857610100808354040283529160200191610513565b820191906000526020600020905b8154815290600101906020018083116104f657829003601f168201915b50505050508152602001600c60008a8152602001908152602001600020600301805461053e90612581565b80601f016020809104026020016040519081016040528092919081815260200182805461056a90612581565b80156105b75780601f1061058c576101008083540402835291602001916105b7565b820191906000526020600020905b81548152906001019060200180831161059a57829003601f168201915b50505050508152508383815181106105d1576105d16125b5565b602002602001018190525081806105e790612568565b9250505b806105f581612568565b915050610426565b509095945050505050565b60606000805461061790612581565b80601f016020809104026020016040519081016040528092919081815260200182805461064390612581565b80156106905780601f1061066557610100808354040283529160200191610690565b820191906000526020600020905b81548152906001019060200180831161067357829003601f168201915b5050505050905090565b60006106a582611732565b61070b5760405162461bcd60e51b815260206004820152602c60248201527f4552433732313a20617070726f76656420717565727920666f72206e6f6e657860448201526b34b9ba32b73a103a37b5b2b760a11b60648201526084015b60405180910390fd5b506000908152600460205260409020546001600160a01b031690565b600061073282610b90565b9050806001600160a01b0316836001600160a01b03160361079f5760405162461bcd60e51b815260206004820152602160248201527f4552433732313a20617070726f76616c20746f2063757272656e74206f776e656044820152603960f91b6064820152608401610702565b336001600160a01b03821614806107bb57506107bb81336102e5565b61082d5760405162461bcd60e51b815260206004820152603860248201527f4552433732313a20617070726f76652063616c6c6572206973206e6f74206f7760448201527f6e6572206e6f7220617070726f76656420666f7220616c6c00000000000000006064820152608401610702565b610837838361174f565b505050565b61084633826117bd565b6108625760405162461bcd60e51b8152600401610702906125cb565b6108378383836118a3565b61083783838360405180602001604052806000815250610fc1565b6060600061089583610c07565b905060008167ffffffffffffffff8111156108b2576108b261221e565b6040519080825280602002602001820160405280156108eb57816020015b6108d8611fd5565b8152602001906001900390816108d05790505b5090506000805b600754811015610b8657856001600160a01b031661090f82610b90565b6001600160a01b031603610b74576000818152600b6020908152604080832054808452600c83528184208251608081019093528054835260018101805492959491929184019161095e90612581565b80601f016020809104026020016040519081016040528092919081815260200182805461098a90612581565b80156109d75780601f106109ac576101008083540402835291602001916109d7565b820191906000526020600020905b8154815290600101906020018083116109ba57829003601f168201915b505050505081526020016002820180546109f090612581565b80601f0160208091040260200160405190810160405280929190818152602001828054610a1c90612581565b8015610a695780601f10610a3e57610100808354040283529160200191610a69565b820191906000526020600020905b815481529060010190602001808311610a4c57829003601f168201915b50505050508152602001600382018054610a8290612581565b80601f0160208091040260200160405190810160405280929190818152602001828054610aae90612581565b8015610afb5780601f10610ad057610100808354040283529160200191610afb565b820191906000526020600020905b815481529060010190602001808311610ade57829003601f168201915b50505050508152505090506040518060a00160405280848152602001610b2085611274565b8152602001896001600160a01b03168152602001826020015181526020018260600151815250858581518110610b5857610b586125b5565b60200260200101819052508380610b6e90612568565b94505050505b80610b7e81612568565b9150506108f2565b5090949350505050565b6000818152600260205260408120546001600160a01b0316806103725760405162461bcd60e51b815260206004820152602960248201527f4552433732313a206f776e657220717565727920666f72206e6f6e657869737460448201526832b73a103a37b5b2b760b91b6064820152608401610702565b60006001600160a01b038216610c725760405162461bcd60e51b815260206004820152602a60248201527f4552433732313a2062616c616e636520717565727920666f7220746865207a65604482015269726f206164647265737360b01b6064820152608401610702565b506001600160a01b031660009081526003602052604090205490565b6000610c9e600780546001019055565b6000610ca960075490565b9050610cb53382611a43565b610cbf8185611b76565b600954610cd6906001600160a01b03166001610fb2565b6000818152600b60209081526040808320869055600a82528083208054600181810183559185528385200180546001600160a01b03191633179055868452600c83528184208251608081019093528054835290810180549293919291840191610d3e90612581565b80601f0160208091040260200160405190810160405280929190818152602001828054610d6a90612581565b8015610db75780601f10610d8c57610100808354040283529160200191610db7565b820191906000526020600020905b815481529060010190602001808311610d9a57829003601f168201915b50505050508152602001600282018054610dd090612581565b80601f0160208091040260200160405190810160405280929190818152602001828054610dfc90612581565b8015610e495780601f10610e1e57610100808354040283529160200191610e49565b820191906000526020600020905b815481529060010190602001808311610e2c57829003601f168201915b50505050508152602001600382018054610e6290612581565b80601f0160208091040260200160405190810160405280929190818152602001828054610e8e90612581565b8015610edb5780601f10610eb057610100808354040283529160200191610edb565b820191906000526020600020905b815481529060010190602001808311610ebe57829003601f168201915b5050509190925250506040805160a08101825285815260208082018a815233838501528186015160608085019190915286015160808401526000888152600d909252929020815181559151939450929091506001820190610f3c908261266a565b5060408201516002820180546001600160a01b0319166001600160a01b0390921691909117905560608201516003820190610f77908261266a565b5060808201516004820190610f8c908261266a565b50929695505050505050565b600061037282610b90565b60606001805461061790612581565b610fbd338383611bfa565b5050565b610fcb33836117bd565b610fe75760405162461bcd60e51b8152600401610702906125cb565b610ff384848484611cc8565b50505050565b6110246040518060800160405280600081526020016060815260200160608152602001606081525090565b6000828152600c60205260408120600101805461104090612581565b90501161108f5760405162461bcd60e51b815260206004820152601960248201527f436f6c6c656374696f6e20646f6573206e6f74206578697374000000000000006044820152606401610702565b600c6000838152602001908152602001600020604051806080016040529081600082015481526020016001820180546110c790612581565b80601f01602080910402602001604051908101604052809291908181526020018280546110f390612581565b80156111405780601f1061111557610100808354040283529160200191611140565b820191906000526020600020905b81548152906001019060200180831161112357829003601f168201915b5050505050815260200160028201805461115990612581565b80601f016020809104026020016040519081016040528092919081815260200182805461118590612581565b80156111d25780601f106111a7576101008083540402835291602001916111d2565b820191906000526020600020905b8154815290600101906020018083116111b557829003601f168201915b505050505081526020016003820180546111eb90612581565b80601f016020809104026020016040519081016040528092919081815260200182805461121790612581565b80156112645780601f1061123957610100808354040283529160200191611264565b820191906000526020600020905b81548152906001019060200180831161124757829003601f168201915b5050505050815250509050919050565b606061127f82611732565b6112e55760405162461bcd60e51b815260206004820152603160248201527f45524337323155524953746f726167653a2055524920717565727920666f72206044820152703737b732bc34b9ba32b73a103a37b5b2b760791b6064820152608401610702565b600082815260066020526040812080546112fe90612581565b80601f016020809104026020016040519081016040528092919081815260200182805461132a90612581565b80156113775780601f1061134c57610100808354040283529160200191611377565b820191906000526020600020905b81548152906001019060200180831161135a57829003601f168201915b50505050509050600061139560408051602081019091526000815290565b905080516000036113a7575092915050565b8151156113d95780826040516020016113c192919061272a565b60405160208183030381529060405292505050919050565b6113e284611cfb565b949350505050565b606060006113f760085490565b67ffffffffffffffff81111561140f5761140f61221e565b60405190808252806020026020018201604052801561146b57816020015b6114586040518060800160405280600081526020016060815260200160608152602001606081525090565b81526020019060019003908161142d5790505b50905060005b60085481101561169357600c600061148a836001612759565b8152602001908152602001600020604051806080016040529081600082015481526020016001820180546114bd90612581565b80601f01602080910402602001604051908101604052809291908181526020018280546114e990612581565b80156115365780601f1061150b57610100808354040283529160200191611536565b820191906000526020600020905b81548152906001019060200180831161151957829003601f168201915b5050505050815260200160028201805461154f90612581565b80601f016020809104026020016040519081016040528092919081815260200182805461157b90612581565b80156115c85780601f1061159d576101008083540402835291602001916115c8565b820191906000526020600020905b8154815290600101906020018083116115ab57829003601f168201915b505050505081526020016003820180546115e190612581565b80601f016020809104026020016040519081016040528092919081815260200182805461160d90612581565b801561165a5780601f1061162f5761010080835404028352916020019161165a565b820191906000526020600020905b81548152906001019060200180831161163d57829003601f168201915b505050505081525050828281518110611675576116756125b5565b6020026020010181905250808061168b90612568565b915050611471565b50919050565b60006116a9600880546001019055565b60006116b460085490565b6040805160808101825282815260208082018881528284018a9052606083018890526000858152600c9092529290208151815591519293509160018201906116fc908261266a565b5060408201516002820190611711908261266a565b5060608201516003820190611726908261266a565b50919695505050505050565b6000908152600260205260409020546001600160a01b0316151590565b600081815260046020526040902080546001600160a01b0319166001600160a01b038416908117909155819061178482610b90565b6001600160a01b03167f8c5be1e5ebec7d5bd14f71427d1e84f3dd0314c0f7b2291e5b200ac8c7c3b92560405160405180910390a45050565b60006117c882611732565b6118295760405162461bcd60e51b815260206004820152602c60248201527f4552433732313a206f70657261746f7220717565727920666f72206e6f6e657860448201526b34b9ba32b73a103a37b5b2b760a11b6064820152608401610702565b600061183483610b90565b9050806001600160a01b0316846001600160a01b0316148061186f5750836001600160a01b03166118648461069a565b6001600160a01b0316145b806113e257506001600160a01b0380821660009081526005602090815260408083209388168352929052205460ff166113e2565b826001600160a01b03166118b682610b90565b6001600160a01b03161461191e5760405162461bcd60e51b815260206004820152602960248201527f4552433732313a207472616e73666572206f6620746f6b656e2074686174206960448201526839903737ba1037bbb760b91b6064820152608401610702565b6001600160a01b0382166119805760405162461bcd60e51b8152602060048201526024808201527f4552433732313a207472616e7366657220746f20746865207a65726f206164646044820152637265737360e01b6064820152608401610702565b61198b60008261174f565b6001600160a01b03831660009081526003602052604081208054600192906119b490849061276c565b90915550506001600160a01b03821660009081526003602052604081208054600192906119e2908490612759565b909155505060008181526002602052604080822080546001600160a01b0319166001600160a01b0386811691821790925591518493918716917fddf252ad1be2c89b69c2b068fc378daa952ba7f163c4a11628f55a4df523b3ef91a4505050565b6001600160a01b038216611a995760405162461bcd60e51b815260206004820181905260248201527f4552433732313a206d696e7420746f20746865207a65726f20616464726573736044820152606401610702565b611aa281611732565b15611aef5760405162461bcd60e51b815260206004820152601c60248201527f4552433732313a20746f6b656e20616c7265616479206d696e746564000000006044820152606401610702565b6001600160a01b0382166000908152600360205260408120805460019290611b18908490612759565b909155505060008181526002602052604080822080546001600160a01b0319166001600160a01b03861690811790915590518392907fddf252ad1be2c89b69c2b068fc378daa952ba7f163c4a11628f55a4df523b3ef908290a45050565b611b7f82611732565b611be25760405162461bcd60e51b815260206004820152602e60248201527f45524337323155524953746f726167653a2055524920736574206f66206e6f6e60448201526d32bc34b9ba32b73a103a37b5b2b760911b6064820152608401610702565b6000828152600660205260409020610837828261266a565b816001600160a01b0316836001600160a01b031603611c5b5760405162461bcd60e51b815260206004820152601960248201527f4552433732313a20617070726f766520746f2063616c6c6572000000000000006044820152606401610702565b6001600160a01b03838116600081815260056020908152604080832094871680845294825291829020805460ff191686151590811790915591519182527f17307eab39ab6107e8899845ad3d59bd9653f200f220920489ca2b5937696c31910160405180910390a3505050565b611cd38484846118a3565b611cdf84848484611dd3565b610ff35760405162461bcd60e51b81526004016107029061277f565b6060611d0682611732565b611d6a5760405162461bcd60e51b815260206004820152602f60248201527f4552433732314d657461646174613a2055524920717565727920666f72206e6f60448201526e3732bc34b9ba32b73a103a37b5b2b760891b6064820152608401610702565b6000611d8160408051602081019091526000815290565b90506000815111611da15760405180602001604052806000815250611dcc565b80611dab84611ed4565b604051602001611dbc92919061272a565b6040516020818303038152906040525b9392505050565b60006001600160a01b0384163b15611ec957604051630a85bd0160e11b81526001600160a01b0385169063150b7a0290611e179033908990889088906004016127d1565b6020604051808303816000875af1925050508015611e52575060408051601f3d908101601f19168201909252611e4f9181019061280e565b60015b611eaf573d808015611e80576040519150601f19603f3d011682016040523d82523d6000602084013e611e85565b606091505b508051600003611ea75760405162461bcd60e51b81526004016107029061277f565b805181602001fd5b6001600160e01b031916630a85bd0160e11b1490506113e2565b506001949350505050565b606081600003611efb5750506040805180820190915260018152600360fc1b602082015290565b8160005b8115611f255780611f0f81612568565b9150611f1e9050600a83612841565b9150611eff565b60008167ffffffffffffffff811115611f4057611f4061221e565b6040519080825280601f01601f191660200182016040528015611f6a576020820181803683370190505b5090505b84156113e257611f7f60018361276c565b9150611f8c600a86612855565b611f97906030612759565b60f81b818381518110611fac57611fac6125b5565b60200101906001600160f81b031916908160001a905350611fce600a86612841565b9450611f6e565b6040518060a00160405280600081526020016060815260200160006001600160a01b0316815260200160608152602001606081525090565b6001600160e01b03198116811461202357600080fd5b50565b60006020828403121561203857600080fd5b8135611dcc8161200d565b60006020828403121561205557600080fd5b5035919050565b60005b8381101561207757818101518382015260200161205f565b50506000910152565b6000815180845261209881602086016020860161205c565b601f01601f19169290920160200192915050565b60006020808301818452808551808352604092508286019150828160051b87010184880160005b8381101561216057603f19898403018552815160a08151855288820151818a87015261210182870182612080565b838a01516001600160a01b0316878b0152606080850151888303828a0152919350915061212e8382612080565b925050506080808301519250858203818701525061214c8183612080565b9689019694505050908601906001016120d3565b509098975050505050505050565b602081526000611dcc6020830184612080565b80356001600160a01b038116811461219857600080fd5b919050565b600080604083850312156121b057600080fd5b6121b983612181565b946020939093013593505050565b6000806000606084860312156121dc57600080fd5b6121e584612181565b92506121f360208501612181565b9150604084013590509250925092565b60006020828403121561221557600080fd5b611dcc82612181565b634e487b7160e01b600052604160045260246000fd5b600067ffffffffffffffff8084111561224f5761224f61221e565b604051601f8501601f19908116603f011681019082821181831017156122775761227761221e565b8160405280935085815286868601111561229057600080fd5b858560208301376000602087830101525050509392505050565b600082601f8301126122bb57600080fd5b611dcc83833560208501612234565b600080604083850312156122dd57600080fd5b823567ffffffffffffffff8111156122f457600080fd5b612300858286016122aa565b95602094909401359450505050565b6000806040838503121561232257600080fd5b61232b83612181565b91506020830135801515811461234057600080fd5b809150509250929050565b6000806000806080858703121561236157600080fd5b61236a85612181565b935061237860208601612181565b925060408501359150606085013567ffffffffffffffff81111561239b57600080fd5b8501601f810187136123ac57600080fd5b6123bb87823560208401612234565b91505092959194509250565b8051825260006020820151608060208501526123e66080850182612080565b9050604083015184820360408601526123ff8282612080565b915050606083015184820360608601526124198282612080565b95945050505050565b602081526000611dcc60208301846123c7565b6000602080830181845280855180835260408601915060408160051b870101925083870160005b8281101561248a57603f198886030184526124788583516123c7565b9450928501929085019060010161245c565b5092979650505050505050565b600080604083850312156124aa57600080fd5b6124b383612181565b91506124c160208401612181565b90509250929050565b6000806000606084860312156124df57600080fd5b833567ffffffffffffffff808211156124f757600080fd5b612503878388016122aa565b9450602086013591508082111561251957600080fd5b612525878388016122aa565b9350604086013591508082111561253b57600080fd5b50612548868287016122aa565b9150509250925092565b634e487b7160e01b600052601160045260246000fd5b60006001820161257a5761257a612552565b5060010190565b600181811c9082168061259557607f821691505b60208210810361169357634e487b7160e01b600052602260045260246000fd5b634e487b7160e01b600052603260045260246000fd5b60208082526031908201527f4552433732313a207472616e736665722063616c6c6572206973206e6f74206f6040820152701ddb995c881b9bdc88185c1c1c9bdd9959607a1b606082015260800190565b601f82111561083757600081815260208120601f850160051c810160208610156126435750805b601f850160051c820191505b818110156126625782815560010161264f565b505050505050565b815167ffffffffffffffff8111156126845761268461221e565b612698816126928454612581565b8461261c565b602080601f8311600181146126cd57600084156126b55750858301515b600019600386901b1c1916600185901b178555612662565b600085815260208120601f198616915b828110156126fc578886015182559484019460019091019084016126dd565b508582101561271a5787850151600019600388901b60f8161c191681555b5050505050600190811b01905550565b6000835161273c81846020880161205c565b83519083019061275081836020880161205c565b01949350505050565b8082018082111561037257610372612552565b8181038181111561037257610372612552565b60208082526032908201527f4552433732313a207472616e7366657220746f206e6f6e20455243373231526560408201527131b2b4bb32b91034b6b83632b6b2b73a32b960711b606082015260800190565b6001600160a01b038581168252841660208201526040810183905260806060820181905260009061280490830184612080565b9695505050505050565b60006020828403121561282057600080fd5b8151611dcc8161200d565b634e487b7160e01b600052601260045260246000fd5b6000826128505761285061282b565b500490565b6000826128645761286461282b565b50069056fea26469706673582212203a20f9019aade8b4289bab577903a877254d9b30d08a9b6dc9b85f373614b50264736f6c63430008130033",
    "sourcePath": "/home/back-dev/Documents/alone/js/contracts/nft/contracts/NFT.sol",
    "compiler": {
        "name": "solc",
        "version": "0.8.19+commit.7dd6d404"
    },
    "functionHashes": {
        "approve(address,uint256)": "095ea7b3",
        "balanceOf(address)": "70a08231",
        "createCollection(string,string,string)": "ece86c21",
        "createToken(string,uint256)": "72b3b620",
        "fetchCollectionID(uint256)": "bcd8705a",
        "fetchCollections()": "d2ead4cb",
        "getApproved(uint256)": "081812fc",
        "getOwnerOfToken(uint256)": "7f1dd80b",
        "getTokensInCollection(uint256)": "04717358",
        "getTokensOfOwner(address)": "5de6dc55",
        "isApprovedForAll(address,address)": "e985e9c5",
        "name()": "06fdde03",
        "ownerOf(uint256)": "6352211e",
        "safeTransferFrom(address,address,uint256)": "42842e0e",
        "safeTransferFrom(address,address,uint256,bytes)": "b88d4fde",
        "setApprovalForAll(address,bool)": "a22cb465",
        "supportsInterface(bytes4)": "01ffc9a7",
        "symbol()": "95d89b41",
        "tokenURI(uint256)": "c87b56dd",
        "transferFrom(address,address,uint256)": "23b872dd"
    },
    "gasEstimates": {
        "creation": {
            "codeDepositCost": "2079800",
            "executionCost": "infinite",
            "totalCost": "infinite"
        },
        "external": {
            "approve(address,uint256)": "infinite",
            "balanceOf(address)": "2700",
            "createCollection(string,string,string)": "infinite",
            "createToken(string,uint256)": "infinite",
            "fetchCollectionID(uint256)": "infinite",
            "fetchCollections()": "infinite",
            "getApproved(uint256)": "4821",
            "getOwnerOfToken(uint256)": "infinite",
            "getTokensInCollection(uint256)": "infinite",
            "getTokensOfOwner(address)": "infinite",
            "isApprovedForAll(address,address)": "infinite",
            "name()": "infinite",
            "ownerOf(uint256)": "2645",
            "safeTransferFrom(address,address,uint256)": "infinite",
            "safeTransferFrom(address,address,uint256,bytes)": "infinite",
            "setApprovalForAll(address,bool)": "26772",
            "supportsInterface(bytes4)": "534",
            "symbol()": "infinite",
            "tokenURI(uint256)": "infinite",
            "transferFrom(address,address,uint256)": "infinite"
        },
        "internal": {
            "_transfer(address,uint256)": "infinite"
        }
    }
}